:020000040000fa
:080000000002040000000000f2
:020000040000fa
:04000800560300009b
:020000040000fa
:04000c006803000085
:020000040000fa
:040010007803000071
:020000040000fa
:040014005e03000087
:020000040000fa
:040018007003000071
:020000040000fa
:04001c006606000074
:020000040000fa
:040020008003000059
:020000040000fa
:04002400660600006c
:020000040000fa
:040028006606000068
:020000040000fa
:04002c004605000085
:020000040000fa
:040030006606000060
:020000040000fa
:04003400660600005c
:020000040000fa
:040038006606000058
:020000040000fa
:04003c006606000054
:020000040000fa
:040040006606000050
:020000040000fa
:04004400660600004c
:020000040000fa
:040048006606000048
:020000040000fa
:04004c006606000044
:020000040000fa
:040050006606000040
:020000040000fa
:040054002004000084
:020000040000fa
:04005800c0030000e1
:020000040000fa
:04005c006606000034
:020000040000fa
:040060006606000030
:020000040000fa
:04006400660600002c
:020000040000fa
:040068006606000028
:020000040000fa
:04006c006606000024
:020000040000fa
:040070006606000020
:020000040000fa
:04007400660600001c
:020000040000fa
:040078006606000018
:020000040000fa
:04007c006606000014
:020000040000fa
:040080006606000010
:020000040000fa
:04008400660600000c
:020000040000fa
:040088006606000008
:020000040000fa
:04008c006606000004
:020000040000fa
:040090006606000000
:020000040000fa
:04009400dc05000087
:020000040000fa
:040098007c050000e3
:020000040000fa
:04009c0066060000f4
:020000040000fa
:0400a00066060000f0
:020000040000fa
:0400a40066060000ec
:020000040000fa
:0400a80066060000e8
:020000040000fa
:0400ac0066060000e4
:020000040000fa
:0400b00066060000e0
:020000040000fa
:0400b400fa0400004a
:020000040000fa
:0400b800200500001f
:020000040000fa
:0400bc0066060000d4
:020000040000fa
:0400c00066060000d0
:020000040000fa
:0400c40066060000cc
:020000040000fa
:0400c800aa04000086
:020000040000fa
:0400cc00d20400005a
:020000040000fa
:0400d00066060000c0
:020000040000fa
:0400d40066060000bc
:020000040000fa
:0400d80066060000b8
:020000040000fa
:0400dc0066060000b4
:020000040000fa
:0400e00066060000b0
:020000040000fa
:0400e40066060000ac
:020000040000fa
:0400e80066060000a8
:020000040000fa
:0400ec008c04000080
:020000040000fa
:0400f00048060000be
:020000040000fa
:0400f400660600009c
:020000040000fa
:0400f8006606000098
:020000040000fa
:0400fc006606000094
:020000040000fa
:04010000660600008f
:020000040000fa
:04010400660600008b
:020000040000fa
:040108006606000087
:020000040000fa
:04010c006606000083
:020000040000fa
:04011000660600007f
:020000040000fa
:04011400660600007b
:020000040000fa
:040118006606000077
:020000040000fa
:04011c006606000073
:020000040000fa
:04012000660600006f
:020000040000fa
:04012400660600006b
:020000040000fa
:040128006606000067
:020000040000fa
:04012c006606000063
:020000040000fa
:04013000660600005f
:020000040000fa
:04013400660600005b
:020000040000fa
:040138006606000057
:020000040000fa
:04013c006606000053
:020000040000fa
:04014000660600004f
:020000040000fa
:04014400660600004b
:020000040000fa
:040148006606000047
:020000040000fa
:04014c006606000043
:020000040000fa
:04015000660600003f
:020000040000fa
:04015400660600003b
:020000040000fa
:040158006606000037
:020000040000fa
:04015c006606000033
:020000040000fa
:04016000660600002f
:020000040000fa
:04016400660600002b
:020000040000fa
:040168006606000027
:020000040000fa
:04016c006606000023
:020000040000fa
:04017000660600001f
:020000040000fa
:04017400660600001b
:020000040000fa
:040178006606000017
:020000040000fa
:04017c006606000013
:020000040000fa
:04018000660600000f
:020000040000fa
:04018400660600000b
:020000040000fa
:040188006606000007
:020000040000fa
:04018c006606000003
:020000040000fa
:0401900066060000ff
:020000040000fa
:0401940066060000fb
:020000040000fa
:0401980066060000f7
:020000040000fa
:04019c0066060000f3
:020000040000fa
:0401a00066060000ef
:020000040000fa
:0401a40066060000eb
:020000040000fa
:0401a80066060000e7
:020000040000fa
:0401ac0066060000e3
:020000040000fa
:0401b00066060000df
:020000040000fa
:0401b40066060000db
:020000040000fa
:0401b80066060000d7
:020000040000fa
:0401bc0066060000d3
:020000040000fa
:0401c00066060000cf
:020000040000fa
:0401c40066060000cb
:020000040000fa
:0401c80066060000c7
:020000040000fa
:0401cc0066060000c3
:020000040000fa
:0401d00066060000bf
:020000040000fa
:0401d40066060000bb
:020000040000fa
:0401d80066060000b7
:020000040000fa
:0401dc0066060000b3
:020000040000fa
:0401e00066060000af
:020000040000fa
:0401e40066060000ab
:020000040000fa
:0401e80066060000a7
:020000040000fa
:0401ec0066060000a3
:020000040000fa
:0401f000660600009f
:020000040000fa
:0401f400660600009b
:020000040000fa
:0401f8006606000097
:020000040000fa
:0401fc006606000093
:020000040000fa
:04020000660600008e
:020000040000fa
:04020400660600008a
:020000040000fa
:040208006606000086
:020000040000fa
:04020c006606000082
:020000040000fa
:04021000660600007e
:020000040000fa
:04021400660600007a
:020000040000fa
:040218006606000076
:020000040000fa
:04021c006606000072
:020000040000fa
:04022000660600006e
:020000040000fa
:04022400660600006a
:020000040000fa
:040228006606000066
:020000040000fa
:04022c006606000062
:020000040000fa
:04023000660600005e
:020000040000fa
:04023400660600005a
:020000040000fa
:040238006606000056
:020000040000fa
:04023c006606000052
:020000040000fa
:04024000660600004e
:020000040000fa
:04024400660600004a
:020000040000fa
:040248006606000046
:020000040000fa
:04024c006606000042
:020000040000fa
:04025000660600003e
:020000040000fa
:04025400660600003a
:020000040000fa
:040258006606000036
:020000040000fa
:04025c006606000032
:020000040000fa
:04026000660600002e
:020000040000fa
:04026400660600002a
:020000040000fa
:040268006606000026
:020000040000fa
:04026c006606000022
:020000040000fa
:04027000660600001e
:020000040000fa
:04027400660600001a
:020000040000fa
:040278006606000016
:020000040000fa
:04027c006606000012
:020000040000fa
:04028000660600000e
:020000040000fa
:04028400660600000a
:020000040000fa
:040288006606000006
:020000040000fa
:04028c006606000002
:020000040000fa
:0402900066060000fe
:020000040000fa
:0402940066060000fa
:020000040000fa
:0402980066060000f6
:020000040000fa
:04029c0066060000f2
:020000040000fa
:0402a00066060000ee
:020000040000fa
:0402a40066060000ea
:020000040000fa
:0402a80066060000e6
:020000040000fa
:0402ac0066060000e2
:020000040000fa
:0402b00066060000de
:020000040000fa
:0402b40066060000da
:020000040000fa
:0402b80066060000d6
:020000040000fa
:0402bc0066060000d2
:020000040000fa
:0402c00066060000ce
:020000040000fa
:0402c40066060000ca
:020000040000fa
:0402c80066060000c6
:020000040000fa
:0402cc0066060000c2
:020000040000fa
:0402d00066060000be
:020000040000fa
:0402d40066060000ba
:020000040000fa
:0402d80066060000b6
:020000040000fa
:0402dc0066060000b2
:020000040000fa
:0402e00066060000ae
:020000040000fa
:0402e40066060000aa
:020000040000fa
:0402e80066060000a6
:020000040000fa
:0402ec0066060000a2
:020000040000fa
:0402f000660600009e
:020000040000fa
:0402f400660600009a
:020000040000fa
:0402f8006606000096
:020000040000fa
:0402fc006606000092
:020000040000fa
:04030000660600008d
:020000040000fa
:040304006606000089
:020000040000fa
:040308006606000085
:020000040000fa
:04030c006606000081
:020000040000fa
:04031000660600007d
:020000040000fa
:040314006606000079
:020000040000fa
:040318006606000075
:020000040000fa
:04031c00a204000037
:020000040000fa
:040320005e06000075
:020000040000fa
:040324006606000069
:020000040000fa
:040328006606000065
:020000040000fa
:04032c006606000061
:020000040000fa
:04033000660600005d
:020000040000fa
:040334006606000059
:020000040000fa
:100400004f6921000eff24000e018800000000004b
:10041000000020000000e000020032000001200087
:1004200020028800140007002a0207000000e000f4
:1004300003003a00400327000100200002003700bb
:100440000000200001002000810f70000100320038
:100450000f000700000020000000e0000200320052
:1004600000000200000000000e7b020000000000ff
:100470000040da000000fe00400420000000e00020
:1004800002003200002020009001880000000600d9
:10049000a1028800800478000000eb001f003700f4
:1004a000e284440054a0b4009905ba00e2844400f8
:1004b00054a0b4009906ba00e284440054a0b400e9
:1004c0000006eb00476fde00fd07b200ae018800ba
:1004d000636ce10003003a000ad801000000eb0061
:1004e0000e003700606ce10008003a00004deb00a0
:1004f0000a05e800020039003420ec000af0a000f0
:100500008b05e900f9ff3e00040037006168e10057
:10051000010032000086eb000b00070019c7ba008b
:100520001905ba000e04e00003003a000a00e000da
:10053000dbff3a0000000600fe07b200ae028800b2
:100540008a047800f5ff37000cd0a300e20f4d00bd
:100550001c003b0089027800354dba000a05e8000e
:10056000020039003420ec000af0a0008b05e900fd
:100570000f003200254dba000a05e80002003900dc
:100580003420ec000af0a0008b05e90008003200de
:100590000c00e0000600320015cdba000a05e800a4
:1005a000020039003420ec000af0a0008b05e900bd
:1005b0008984e80054a0b4000b00e000e2ff3a0098
:1005c000000006009902ba00055d78008b05e9007d
:1005d000f7ff3200c82ade00055d78008b05e900d0
:1005e000f3ff32000c00e000f1ff320019ddba0029
:1005f000eeff3700b883040000000000fc77040021
:10060000000000002a780400000000005e7804006a
:10061000000000009478040000000000ca78040084
:10062000000000007e670400000000009c670400da
:10063000000000002a80040000000000c26a0400dc
:1006400000000000e06a040000000000667f040073
:10065000000000000a7f04000000000002100400f7
:10066000000000003c4b040000000000745b04002c
:1006700000000000463e0400000000005854040042
:1006800000000000d06d040000000000686104005c
:1006900000000000da7904000000000032270400a6
:1006a00000000000b6630400000000003600f800ff
:1006b000c028a9000000eb00334007003600f80016
:1006c00035400700c048a900100020002e40070058
:1006d0003600f800c068a900200020002a4007006a
:1006e0003600f800c088a90030002000264007002e
:1006f0003600f800c608a90070002000224007005c
:100700003600f800214680000010200000806000c4
:100710000000e00003003200c508a900c00020006e
:10072000194007002146800000002800008060007a
:100730000000e00003003200c5e8a90080002000ae
:100740001140070020468000700060000000e000bb
:1007500003003200c488a900a00020000a4007005e
:1007600020468000610060000000e00003003200cd
:10077000c408a900b000200003400700ffff3700b5
:100780003600f800809fbe00829fbe00849fbe009e
:10079000869fbe000000fa00408580000000e00057
:1007a00002003200408580000000010021858000a9
:1007b00010858000808f500002003a002188a90037
:1007c000180037000188a90010003700208580003c
:1007d000904078008180fb00411288000000e80012
:1007e000208588002185800010542100808f5000d2
:1007f00002003a00004c21002085880021858000fd
:1008000010858000808f500005003200f0118000bc
:10081000700060000000e000ecff320001003700d3
:10082000000000000080fa004f03be004f02be002f
:100830004f01be004f00be003600f9000040060028
:100840003600f800809fbe00829fbe00849fbe00dd
:10085000869fbe000000fa00508580000000e00086
:100860000200320050858000000001000168a900ec
:100870001e003700f0848000211280008140780043
:1008800001487800f184800010562100808f5000cc
:1008900009003200f08480008000e80000858000bc
:1008a000808f500004003200f08480000000e800d7
:1008b000f08488000d003700f1848000105621007c
:1008c000808f500007003a000185800010542100fd
:1008d000808f50000300320010542100f084880003
:1008e0000200370010c0b300a6f0b700f01180007e
:1008f000620060000000e000deff32000080fa00cd
:100900004f03be004f02be004f01be004f00be00ad
:100910003600f90000400600801f78000000fa0051
:10092000e0118000620060000000e0000100320081
:100930003c22a9000628a9000080fa004f00780098
:10094000004006000000fa0017a8a9000080fa0085
:10095000004006003600f800809fbe00829fbe0067
:10096000849fbe00869fbe000000fa0021408000e8
:1009700000102000008060000000e0000200320053
:10098000953e07000508a9000080fa004f03be004d
:100990004f02be004f01be004f00be003600f900fe
:1009a000004006003600f800809fbe00829fbe0017
:1009b000849fbe00869fbe000000fa002140800098
:1009c00000202000008060000000e00002003200f3
:1009d000853e07000528a9000080fa004f03be00ed
:1009e0004f02be004f01be004f00be003600f900ae
:1009f000004006003600f800809fbe00829fbe00c7
:100a0000849fbe00869fbe000000fa002040800048
:100a1000680060000000e00002003200b23e070003
:100a20000468a9000080fa004f03be004f02be0018
:100a30004f01be004f00be003600f9000040060026
:100a40003600f800809fbe00829fbe00849fbe00db
:100a5000869fbe000000fa00204080007000600009
:100a60000000e00002003200a33e07000488a90055
:100a70000080fa004f03be004f02be004f01be00cf
:100a80004f00be003600f900004006003600f800b6
:100a9000809fbe00829fbe00849fbe00869fbe00d6
:100aa0000000fa00a08780000000e0000200320091
:100ab000a08780000000010030692100104078000c
:100ac0008040e80030692100014878002069210059
:100ad00011c0b300014878000028a9000080fa0086
:100ae0004f03be004f02be004f01be004f00be00cc
:100af0003600f900004006003600f800809fbe0076
:100b0000829fbe00849fbe00869fbe000000fa0048
:100b1000b08580000000e00002003200b085800057
:100b2000000001009185800080858000808f50004a
:100b300002003a002388a900180037000388a900a2
:100b40001000370090858000904078008180fb0085
:100b5000811388000000e80090858800918580005e
:100b6000f0492100808f500002003a00e039210056
:100b7000908588009185800080858000808f50005e
:100b80000500320030138000700060000000e000bb
:100b9000ecff320001003700000000000080fa0086
:100ba0004f03be004f02be004f01be004f00be000b
:100bb0003600f900004006003600f800809fbe00b5
:100bc000829fbe00849fbe00869fbe000000fa0088
:100bd000c08580000000e00002003200c085800077
:100be000000001000368a9001e0037006085800036
:100bf00061138000814078000148780061858000a1
:100c0000f04b2100808f5000090032006085800089
:100c10008000e80070858000808f50000400320062
:100c2000608580000000e800608588000d003700c6
:100c300061858000f04b2100808f500007003a0052
:100c400071858000f0492100808f50000300320040
:100c5000f0492100608588000200370010c0b30011
:100c6000b4f0b70030138000620060000000e000c4
:100c7000deff32000080fa004f03be004f02be00cc
:100c80004f01be004f00be003600f90000400600d4
:100c9000801f78000000fa002013800062006000ce
:100ca0000000e000010032006422a9000648a9000b
:100cb0000080fa004f007800004006000000fa00b3
:100cc00017c8a9000080fa00004006000040da00c2
:100cd0000000fe000000050014002000a103370002
:100ce000f4ff2f009f0337000001be002000070023
:100cf0000470a70003f0a10003f8a30013003a005a
:100d00006509b10010003200090035006928e100d2
:100d1000020035000100280000000500000040002e
:100d2000818048008502e900fcff3a0000000600cf
:100d3000f88f4200050035008100d1000080d3000b
:100d40008502e800fcff3a00000006008000eb008e
:100d5000000005004f89de00820178009c03370007
:100d60006011b800aa033700040020007d0337009b
:100d7000c70ade00f107b200f50fb200080032002a
:100d8000e1cf4200020032000170a0002400050003
:100d9000810f7000010032000408050044000500c6
:100da000810f700002003a00140005008502e9007e
:100db0000000400081c04800fcff3b000170a00023
:100dc000240005006022b800060220000000d000c8
:100dd0008180d2000482d2008582d2000000a0006f
:100de0000202520083825a000300310002024200d4
:100df00083824a000000a1000603e900f3ff3a00e5
:100e000000000600efff07000400be00000006001f
:100e100007f82700078361000638e10004003a0064
:100e2000f7072000878361008703710001003a0003
:100e300003f0a200889fbe008a9fbe008c9fbe0068
:100e4000470ade000480a100c71ade000580a10069
:100e5000070028000785600087856100f70f2000e4
:100e60000720e1009e0032000728e1009c003200cc
:100e7000010678000400e000b4003200f70720000b
:100e8000878060000170a0000500e000c000320013
:100e9000f7072000878161000370a000050652005b
:100ea0000f003a000b50e1000b0032000308e10094
:100eb00002003a000200e1007e003200020450000d
:100ec00083845800040031000001fd008101fd0011
:100ed0008402fd008a05fd006044b800210037004f
:100ee0000520e10005003d000001fd008101fd003d
:100ef0008402fd008a05fd00050652007a60e100cb
:100f0000050035000170a1004722dd0084807000db
:100f10008a807000630037006044b800ef0266000a
:100f200007ff2f00070666000500e00006003400fa
:100f3000f08312008714dd000511de00071bdd00c1
:100f4000060171008519de007060e10005003500c2
:100f50000904780082047800030178008001eb0026
:100f6000700656000b50e10003003a0002004000fa
:100f7000838048000400370060041400e0841c00f3
:100f800002005800838058000188a3000600320048
:100f90008100d1000080d3008984d3000884d3006d
:100fa0000402e800270037000178a30025003a007a
:100fb0000100e000030032008186cf006986560000
:100fc0000a0037008c0020000000e00004003a0016
:100fd00009007800880478000004eb0070025200d9
:100fe0008086cf000d0646000c06e9007060e10027
:100ff0000600350080007800090078008804780039
:101000000004eb0070065600700252000c00e00075
:101010000c0034008c08dd00f00316000703de002e
:10102000868070000c00dd00074bde0006007000bb
:101030008c4cdd000743de00868474000c44dd0028
:101040000c0252006120e1002000350061016000c7
:101050000700280087816400f7ff2700878364006a
:10106000070374000300e0000600320082037300ef
:10107000040032000000e800e08048000188a3007e
:101080000e003a00f70f20000720e1004a003d0063
:101090000170a1004722dd00810072008a8070008b
:1010a0000000be004f06be004f05be004f04be004c
:1010b000000006006000b800faff37008100d10090
:1010c0000080d3000402e800eeff3700040178003e
:1010d00089017400a10107008a807000f1ff3700c8
:1010e000f7010700070278000001fd008101fd0003
:1010f000f301070087027800850372000778a300d8
:10110000040032000001fd008101fd00060207001d
:10111000e4ff3700850362000768a300080032007f
:101120000b50e10003003200f0ff2f00f1ff270019
:10113000dcff37000001fd008101fd00d9ff370011
:101140000468a300d7ff3200faff3700f8ff27003a
:10115000888360000b003a000000e00009003a00bc
:101160008303640082837300020032000200be0029
:10117000ccff37000b50e100ceff3a000200be006a
:10118000c8ff370014002000810064003eff3700d4
:10119000f8ff27008883610004003a000200e000a5
:1011a00002003a008c007800beff370015002000d6
:1011b0008301640039ff370001f827000000200098
:1011c00081007500b7ff3700889fbe008a9fbe0070
:1011d0008c9fbe001b0020000202be000586680036
:1011e00006002800060666004709de00f20fb2007e
:1011f000820032000243e80080003200c729de008e
:10120000f30fb2007d0032000343e8007b003200a0
:10121000f107b2000170a000f507b2000570a00050
:10122000c708dd004903de00868070004700dd004e
:10123000c72add004923de00868272004722dd00d6
:10124000030551000403500085835800030031005a
:1012500000004000818048000a05e9008c1f7800ea
:101260008a9fbe000400500085805800040242009e
:1012700085824a0000004000818048000005eb00a4
:101280000004be006033b8000406be000d48e10053
:1012900056003100050009004dccd8000c01b80003
:1012a0000d02b8008481410060824a0082835300ad
:1012b00003045c0084845c0060055d000a00e000bb
:1012c00025003a00800578000d40e100490031001a
:1012d0008800780007007800050009004d88d800d4
:1012e0000c01b8000d02b8008481410060824a0000
:1012f0006003110083835b0004045c00e0845c00f5
:101300000900e00021003a004f01be000300e000a8
:101310002b003200e3016000070673008c8171002e
:1013200001003200640070004200de004e5edd000d
:101330000c007000c258de0001e0a000830107002d
:10134000cf017800818071004f06be004f05be00be
:101350004f04be00000006008c8343000d044c00c7
:10136000e0844c0060054d000000e9000a00e00048
:10137000d4ff32008c8343000d044c00e0844c0009
:1013800060054d000000e900ceff37000c0343006c
:101390008d834b0060044c00e0844c000000e900a9
:1013a0000900e000d8ff32000c0343008d834b009e
:1013b00060044c00e0844c000000e900d2ff3700dc
:1013c0004200de004e5edd000c007000c258de0000
:1013d00001e0a000cf0178000300e000daff320056
:1013e00060001000e0801800d7ff3700f0ff2f00ea
:1013f000aaff3700f0ff2f00b9ff37000404be003a
:101400002f010700870678000004fd008104fd001d
:101410002b010700078366000678a3000300320053
:101420000960a7000800be002c0037000d78a3005b
:10143000020032000800be00280037000778a30031
:1014400026003a0001f0a10009f0a1000668a300ff
:1014500003003200f1ff2700f0ff2f00baff370032
:101460000d68a300030032000800be008c807000ed
:10147000b5ff37000768a30007003a000648a3003d
:1014800003003200f1ff2700f0ff2f00aeff37000e
:101490000d48a300030032006000b8008c8070008b
:1014a000a9ff37000748a3000400320001f8270015
:1014b000000020008c807000a3ff37007601070039
:1014c0000004fd008104fd000205780072010700a0
:1014d0000802be008a01780059ff37000160a000b1
:1014e00012022000b287880097ff37000100e00059
:1014f000120032000500e00010003200889fbe009c
:101500008a9fbe008c9fbe000006eb0001f8a3007e
:101510000300320060001000e08018000cf0a00012
:1015200005f8a3000300320060021200e0821a00f6
:101530000cf0a2008005eb0041ff37006000b8000e
:10154000020005000383680007002800070363000a
:10155000470ade000480a100c71ade000580a10052
:10156000f70f20000720e100420032000728e100c9
:1015700040003200889fbe008a9fbe008c1f78000a
:10158000f107b200f307b2000400e000640032008b
:101590000170a0000500e000680032000370a000a8
:1015a00085054200eb07b1000204b8000302b80051
:1015b0008484440060854a00020ab80084844400a0
:1015c0000a854a00030ab8000405450004003300f8
:1015d0000804d0008984d2000a85d2008b05e90076
:1015e0006158e1003d003500021020000901610052
:1015f0000308200089816100f707200087836400c9
:1016000008867300c84cde00c853dd008784740070
:101610004855de000300e000060032008203760039
:10162000040032008904e80060054d000a88a30028
:101630000c003a00f70f20000758e10044003d007d
:101640000a70a100c75ddd000a8575008a0073007d
:10165000090078004f0678004f05be004f04be0019
:10166000000006000a05d1008984d3008b05e8003c
:10167000f0ff3700881f780006047800900007000c
:10168000070278000001fd008101fd008c000700c9
:1016900087027800850372000778a30005003200f6
:1016a0000001fd008101fd009f0007004f0478004c
:1016b00000000600850372000748a3000300320003
:1016c000f0ff2f00f1ff2700f8ff37000000200097
:1016d00001f8270088807000f4ff37008801780047
:1016e0004848dd00808171004848de00c850dd00b8
:1016f00001007000c850de00060478000b0178007d
:101700001600070088807000d2ff37000500e00057
:1017100005003200170020003a0007009dff370047
:1017200081037000f9ff3a00860078004f067800c8
:101730004f05be004f04be0000000500830371008a
:10174000f9ff3200270020002e00070094ff370029
:1017500001f8270086807000f4ff37000100e000e8
:1017600026003200610111007810e10023003c00e6
:101770006022b8007010e10004003500800278009b
:10178000010078008000eb00700151000200e000d1
:101790000900340070031100062add00822ade00f1
:1017a0008603dd00878272000200de00860bdd000a
:1017b000070070008208de0084817100f4ff2700ba
:1017c0000482620084817100040028008482620027
:1017d0006102600005f0a6000000060004827100ae
:1017e000070032000000e800e0804800000006002a
:1017f0000002be006000b800efff37006000b800d4
:1018000000000600889fbe000004eb006138e10084
:1018100016003a000100e00008003a00c800de00af
:101820004800dd00880020000100e00003003a00cd
:10183000c800de004800dd00680444008184cf0059
:10184000e9845400060034008908dd00f0831400a8
:101850008703de00878070000900dd000904440072
:10186000610214004f04be00000006000300e00007
:1018700008003a00c811de004811dd008800200091
:101880000300e00003003a00c811de004811dd004b
:10189000680444008384cf00e984540006003400c7
:1018a0008919dd00f08314008713de008781710041
:1018b0000911dd0009044400e1021400e9ff3700ca
:1018c0002700200001f0a70017002000470bde00d2
:1018d000f60fb200040032000643e8000a003200ae
:1018e0004702b3000000060001037800f607b200cb
:1018f0000603700002003a000703b3000000060070
:101900008702b3000000060001037800f607b2006a
:1019100006037000020032000770a00000000600fd
:101920000760a000000006000478a3000400320055
:101930000578a300030032000168a30001003a000b
:101940000200be000160a0000000060081017000de
:10195000270032008002eb0001f8a30003003200f0
:1019600060001000e080180015002000f40720003f
:101970000202420020003400f703200087036000c9
:10198000060420000003630002082000000161003b
:101990004700de00c909dd0000807100c708de00d5
:1019a0000600e000080032008703710006003200e4
:1019b0001000b0000180b0000188a30002003200d6
:1019c000c108de000402e800f107b200f30f2000b6
:1019d0000320e10003003d004722dd00810072008a
:1019e0002900370001f827000000eb00260037002f
:1019f0006000b80000000600680212007f20e100cd
:101a0000020034006000b8001f0037006011b80009
:101a10007020e100040035008001780001007800aa
:101a20008000eb00700252000400e0000900340066
:101a3000f00312000719dd008419de000703dd0042
:101a4000868171000400de00070bdd0006007000d7
:101a50008408de00f7ff270083836300870371009b
:101a60000600280003036300070032000700e000bf
:101a700003003a006101600002817300020032003d
:101a80001000b0000180b0000500a60000000600b4
:101a900001f0a000000006004f0ade004709de004a
:101aa000f107b200f20fb2000b003200f207b100f2
:101ab0000170a000c708dd00c901de00838070004e
:101ac0004700dd000400a6000000060060001000d2
:101ad000e080180000000600810f700001003a004d
:101ae000000006008182cf000500e00010003e00eb
:101af0008082cf00ee8242007028e10004003900ad
:101b000007003e00800078000000eb000e00370068
:101b1000708312008600de000500dd000a00370039
:101b2000708352008600dd000000eb0006003700e5
:101b3000e28252008508dd00708312000603de0099
:101b4000868070000500dd007507b0000501ea0021
:101b50000400a6000000060060001000e0801800ed
:101b600000000600889fbe008a9fbe00841f780088
:101b70007c0007004f00780011003300f0ff2f00b9
:101b8000838f6c0006003b00040565000a00a70077
:101b90000800370009f0a6001000200008003700f8
:101ba000820f5400838f5c00030039001000200076
:101bb00001003e000000200009f0a7000000ea003c
:101bc0004f05be004f04be000000e000000006000c
:101bd000881f7800030478000300e00007003d0040
:101be00060001000e080180060011900e081190019
:101bf00002003b0001f02d00030037000400070045
:101c000008f0a70001f0a0004f04780000000600d3
:101c1000889fbe008a9fbe0000827000040271008f
:101c200004827100260032000004be000200be00e3
:101c30006011b8006b092000950220000182cf00de
:101c40000a0039000541b1000082cf0007003900c9
:101c50000541b1000982cf00040039000541b100ff
:101c60000882cf00010039000541b1000542520051
:101c7000120032000a003b008281710061016400a1
:101c80008100d1000080d3008984d3000884d30070
:101c90008b05e8000442e800f7ff3a000700370030
:101ca0000804440089844c000000480081804800fa
:101cb0008b05e9000442e900f9ff3a000300070040
:101cc0004f05be004f04be0000000600810020004a
:101cd000618055000b003d000b00200061fe2f00cd
:101ce0000100e1001d003400828171006101640087
:101cf0008904d1000884d3000000e800faff3a000c
:101d000071002000610064000300700002006000a8
:101d10000900320061044400e0844c000988a500f9
:101d2000050032008b05e8006808e10002003a0077
:101d30008904d1000884d300f20f20000258e1008a
:101d400005003d00c75ddd00f907b2008980750020
:101d500008007800000006000bf827008b007800d0
:101d6000000005000004be0001fc07000003be00e7
:101d70000405be000200be00fdfb0700844f750095
:101d80000000060080007800100020000202200001
:101d9000828f500004003200e9805000e48f500030
:101da000010036000000eb0000000600889fbe0026
:101db0008a1f7800000578000a04780098447800ab
:101dc0000805e8000900fb00eeff07000000e00046
:101dd000f9ff3a00b0c2b30080cf540005003200d2
:101de000d0c2b3008000eb0080cf540005003a0061
:101df000020037008000eb000100370011002000d6
:101e00000804e8000000eb0003003700ea00b90016
:101e1000020050000003b0003801fb0003fd2f005a
:101e200082814100e98f5100f8ff36000100e00097
:101e300001003a000000ea004f0578004f04be00a0
:101e40000000060080007800100020000202200040
:101e5000828f500004003200e9805000e48f50006f
:101e6000010036000000eb0000000600889fbe0065
:101e70008a9fbe00000578008a0478001944780023
:101e80000905e8000800fb00eeff07000000e00085
:101e9000f9ff3a00b0c2b300804f54000400320092
:101ea000d0c2b300804f540006003a000200370051
:101eb0000004eb0001003700180020008904e8004e
:101ec000010037000004eb006000b8000600370096
:101ed000a2002000030020000e000700cfd5de0086
:101ee0000a0050008b8058003905fb000a03b1003e
:101ef000e90f5500f6ff36000800e00002003a0046
:101f000060001000e08018004f05be004f04be00c6
:101f100000000600020ab900001bb9000200b80068
:0c1f200081004200810043000000060028
:020000040000fa
:101f2c005665000072730000696f00006e3a000085
:101f3c0020760000303000002e300000312e0000e2
:101f4c00303700000a0d00000a0000005265000046
:101f5c007365000074200000566100006c75000071
:101f6c00653a0000090000000a0d00000a0d00008f
:101f7c00002c000000240000002c000009000000d0
:101f8c000a0d000000000000c70000008f010000d7
:101f9c001f030000af0400003f0600006b070000a9
:081fac002c00000024000000dd
:020000040000fa
:101fb4000000fa0060002000208388006770ef00b2
:101fc4006870ef006a30ef006670ef006c70ef002d
:101fd4006e30ef007030ef007270ef007370ef003e
:101fe4007470ef007570ef007670ef007770ef009b
:101ff4007870ef007970ef000080fa0000000600ae
:102004001600fa000040eb00004f78000040eb009f
:10201400104798000040eb00204798000040eb0078
:10202400504798000040eb00604798000040eb00e8
:10203400704798000040eb00004f98000040eb0010
:10204400104f98000040eb00204f98000040eb0038
:10205400304798000040eb00404798000000eb0038
:10206400600798006000b800100f9800210f9800d6
:102074006000b80070079800010f9800e0898000a4
:10208400e10f5000bd013200e10f500003003900a0
:10209400e20f50001d02320078093700f10f2000d2
:1020a400501821003d2c0700204798002e40900036
:1020b4000004e0000d003200501821009040780028
:1020c40030c2b30080cf500008003a001000200056
:1020d400e0898800e0132100ae40900001487800b8
:1020e400e01321001040780068f0b70050838000ae
:1020f4000000e8005083880051838000800c200099
:10210400808f5000580936006a30ef0072d0bf004b
:102114000004e00003003a0073d0bf000004e000b4
:102124003101320030c2b3005a0907004e4090001a
:102134000080fb00215b21000080400031c2b3001d
:10214400014878004e4090000040e8004047980065
:1021540073d0bf000004e0002e00320090c5b3002d
:102164004c09070030c4b3004a0907004e409000f0
:102174000080fb00215b21000080400091c5b3007a
:10218400014878004e4090000040e8004047980025
:102194004e4090000080fb00215b21000080400045
:1021a40031c4b300014878004e4090000040e8007c
:1021b4004047980005350700600798006e009000be
:1021c4008000eb0042c0b300590907002047980083
:1021d4002e4090000080fb008000780060fd280005
:1021e4003209070020479800f01321002e41900087
:1021f400ce4090001c0a0700404798002e409000f3
:102204000080fb0080007800f0132100002c070000
:102214000b00370090c5b3001e0907004e40900024
:102224000080fb00215b21000080400091c5b300c9
:10223400014878004e4090000040e8004047980074
:1022440010c4b300130907004e4090000080fb0047
:10225400215b21000080400011c4b30001487800d4
:102264004e4090000040e80040479800672f070068
:10227400100f9800210f98001e089000ae089000df
:1022840062c0b3002a090700204798002e4090003e
:102294000080fb008000780060fd2800030907002f
:1022a40020479800f01321002e419000ce4090006a
:1022b400ed090700404798002e4090000080fb0085
:1022c40080007800f0132100d12b070020c4b30054
:1022d400f00807004e4090000080fb00215b2100c5
:1022e4000080400021c4b300014878004e409000b3
:1022f4000040e80040479800492f0700100f98005d
:10230400210f98001e089000ae08900062c0b30030
:1023140007090700204798002e4090000080fb002a
:102324008000780060fd2800e0080700204798003e
:10233400f01321002e419000ce409000ca090700fe
:10234400404798002e4090000080fb0080007800f9
:10235400f0132100ae2b070060c4b300cd080700c2
:102364004e4090000080fb00215b21000080400073
:1023740061c4b300014878004e4090000040e8007a
:1023840040479800721f070070079800010f9800db
:1023940022c0b3007e0090008e089000410907001f
:1023a400204798002e4090000080fb0080007800b9
:1023b40060fd2800bd08070020479800f0132100a5
:1023c4002e419000ce409000a70907004047980096
:1023d4002e4090000080fb0080007800f013210064
:1023e4008b2b070040c4b300aa0807004e4090009e
:1023f4000080fb00215b21000080400041c4b30049
:10240400014878004e4090000040e80040479800a2
:10241400ce260700204f98002e4890000080fb0035
:102424008000eb000041eb00c10807002047980042
:102434002e4090000080fb008000780060fd2800a2
:102444009a08070020479800f01321002e419000bd
:10245400ce40900084090700404798002e40900029
:102464000080fb0080007800f0132100682b070037
:1024740080c4b300870807004e4090000080fb0032
:10248400215b21000080400081c4b3000148780032
:102494004e4090000040e800404798008423070025
:1024a400600798006e0090008000eb0032c0b3001b
:1024b4009f080700204798002e4090000080fb00f2
:1024c4008000780060fd2800780807002047980005
:1024d400f01321002e419000ce40900062090700c5
:1024e400404798002e4090000080fb008000780058
:1024f400f0132100462b070050c4b3006508070001
:102504004e4090000080fb00215b210000804000d1
:1025140051c4b300014878004e4090000040e800e8
:1025240040479800e5300700600798006e0090006f
:102534008000eb0042c0b3007d08070020479800ec
:102544002e4090000080fb008000780060fd280091
:102554005608070020479800f01321002e419000f0
:10256400ce40900040090700404798002e4090005c
:102574000080fb0080007800f0132100242b07006a
:1025840070c5b30043080700ce409000205b2100d3
:10259400050907000080fb008000eb00100f980085
:1025a400210f98001e089000ae08900032c0b300be
:1025b4005f080700204798002e4090000080fb0031
:1025c4008000780080fd2800380807002047980024
:1025d4002e4090000080fb0080007800f013210062
:1025e4000b2b07002508370074d0bf000004e0005f
:1025f4001f08320010c0b30073f0b70030c2b3003c
:102604002408070060c5b300220807004e4090006c
:102614000080fb00215b21000080400031c2b30038
:10262400014878004e4090000040e8004047980080
:102634004e4090000080fb00215b210000804000a0
:1026440061c5b300014878004e4090000040e800a6
:102654004047980022c0b3006000b8003408070067
:1026640020479800f01321002e419000ce409000a6
:10267400fd080700404798002e4090000080fb00b2
:1026840080007800f0132100e12a070022c0b30083
:1026940010002000010020002508070020479800b2
:1026a400f01321002e419000ce409000ee08070068
:1026b400404798002e4090000080fb008000780086
:1026c400f0132100d22a070022c0b3001004200016
:1026d4000100200016080700204798002e409000b3
:1026e4000080fb008000780060fd2800ef070700f1
:1026f40020479800f01321002e419000ce40900016
:10270400d9080700404798002e4090000080fb0045
:1027140080007800f0132100bd2a0700ce4090000d
:10272400205b2100a00807000080fb008000eb0074
:10273400100f9800210f98001e089000ae0890001a
:1027440032c0b300fa070700204798002e409000db
:102754000080fb008000780080fd2800d30707007c
:10276400204798002e4090000080fb0080007800f5
:10277400f0132100a62a0700c00737000040eb0031
:1027840020479800180037002e4090000080fb007e
:10279400a104200080804000a0132100008040009c
:1027a4009040900040c2b30080cf50000b003a002c
:1027b4002e409000ff4f500002003600f0c1b300dd
:1027c4002047980050182100ae409000fa130700eb
:1027d40020002000e0898800080037002e40900087
:1027e4000040e80020479800e01321009040780062
:1027f4002e40900080cf5000e3ff3100e013210011
:10280400104078008080fb005018210000804000b8
:10281400f10f2000612a0700204798002e40900005
:102824000004e0002d003200e01321009040780005
:102834002e40900080c04000e01321000148780041
:1028440081062100914078002e40900000c0400095
:1028540068f0b7000040eb002047980019003700eb
:102864002e4090000080fb00a104200080804000e6
:10287400a0132100008040009040900040c2b300ab
:1028840080cf50000c003a002e409000ff4f5000c3
:1028940002003600f0c1b300204798005018210010
:1028a400ae409000c413070020002000e089880097
:1028b40000000000710737002e4090000040e8003f
:1028c40020479800e0132100904078002e409000ab
:1028d40080cf5000e2ff3e006807370068d0bf0099
:1028e4000040e80068f0b7008106210091407800bc
:1028f40080ccb30080cf50005f0736006870ef00d3
:102904000000eb00e08988005c07370060182100b4
:10291400104078000080fb006101b900f0fb2f003b
:10292400f1ff2f0002004000838048009203200042
:1029340003002000820f5000838f58000a073e00d6
:1029440000060100390037005000370067003700e7
:102954007d00370006073700a6003700d000370097
:102964003c013700020737000107370064013700d4
:10297400ff063700f5013700fd0637008b023700ec
:1029840019033700d903370069043700d504370029
:1029940041053700f6063700f5063700f406370020
:1029a400f3063700db053700b2063700f0063700c0
:1029b400ef063700ee063700ed063700ec06370069
:1029c400eb063700190037003000370047003700a6
:1029d4005d003700e606370086003700b000370098
:1029e4001c013700e2063700e106370044013700d6
:1029f400df063700d5013700dd0637006b023700ec
:102a0400f9023700b903370049043700b504370029
:102a140021053700d6063700d5063700d40637001f
:102a2400d3063700bb0537009206370030c2b30027
:102a34001807070010c4b30016070700732d07001a
:102a4400100f9800210f98001e089000ae08900007
:102a540062c0b30036070700204798002e4090005c
:102a64000080fb008000780080fd28000f0707002d
:102a7400204798002e4090000080fb0080007800e2
:102a8400f0132100e2290700f406370030c2b30036
:102a94000007070020c4b300fe060700602d0700ee
:102aa400100f9800210f98001e089000ae089000a7
:102ab40062c0b3001e070700204798002e40900014
:102ac4000080fb008000780080fd2800f7060700e6
:102ad400204798002e4090000080fb008000780082
:102ae400f0132100ca290700dc06370030c2b30006
:102af400e806070030c4b300e6060700b332070057
:102b0400600798006e0090008000eb0042c0b300a4
:102b140007070700204798002e4090000080fb0024
:102b24008000780080fd2800e00607002047980018
:102b34002e4090000080fb0080007800f0132100fc
:102b4400b3290700c506370030c2b300d106070019
:102b540040c4b300cf06070006250700204f9800a5
:102b64002e4890000080fb008000eb000041eb0049
:102b7400ef060700204798002e4090000080fb00dd
:102b84008000780060fd2800c806070020479800f0
:102b94002e4090000080fb0080007800f01321009c
:102ba4009b290700e9240700204f98002e48900035
:102bb4000080fb008000eb000041eb00dc06070016
:102bc400204798002e4090000080fb008000780091
:102bd40080fd2800b5060700204798002e4090008d
:102be4000080fb0080007800f01321008829070092
:102bf4009a06370030c2b300a606070060c4b300cb
:102c0400a4060700651d0700204f98002e48900079
:102c14000080fb008000eb000041eb00c4060700cd
:102c2400204798002e4090000080fb008000780030
:102c340060fd28009d060700204798002e40900064
:102c44000080fb0080007800f01321007029070049
:102c54003f1d070070079800010f980022c0b300c1
:102c64007e0090008e0890000e0707002047980011
:102c74002e4090000080fb008000780080fd28003a
:102c84008a060700204798002e4090000080fb0031
:102c940080007800f01321005d2907006f063700db
:102ca4000040eb0030479800030037003e4090009e
:102cb4000040e800304798003e4090000080fb0050
:102cc400a104200080804000a01321000080400067
:102cd4009040900040c2b30080cf5000f3ff3a0010
:102ce400be40900072062100014978000040eb00cc
:102cf40030479800030037003e4090000040e80051
:102d04003047980067d0bf00be40900080cf50008d
:102d14000a0031003e4090000080fb00a104200026
:102d240080804000a013210000804000904090006b
:102d3400c0c2b30080cf5000efff3a003e41900084
:102d4400024f980067d0bf008e48900080cf50009b
:102d5400090632008e48900031479800030037007e
:102d64003e4090000040e8003047980067d0bf0024
:102d7400be40900080cf50000a0031003e409000d9
:102d84000080fb00a104200080804000a0132100eb
:102d9400008040009040900070c5b30080cf500088
:102da400efff3a003e4190007247980067d0bf00a1
:102db400fe40900080cf5000f10532000e48900094
:102dc4000080fb000000e900a10420008080400096
:102dd400a0132100008040009040900000cdb3007b
:102de40000c04000204f9800511821007e40900000
:102df4000080fb000000e80000804000eafb0700c0
:102e0400104f9800fe40900050182100e60607007d
:102e14009e489000814f50000c003a002e489000cc
:102e24000004e0000300320010c0b300004f78003b
:102e3400020037000040eb00004f78001e4078008d
:102e4400c32e07002a0707000406370043070700bc
:102e54000206370030c2b3000e06070080c4b30078
:102e64000c06070006210700204f98002e4890000a
:102e74000080fb008000eb000041eb002c06070003
:102e8400204798002e4090000080fb0080007800ce
:102e940060fd280005060700204798002e4090009a
:102ea4000080fb0080007800f0132100d828070080
:102eb400ff200700600798006e0090008000eb0080
:102ec400a6f7070032c0b300760607002047980033
:102ed4002e4090000080fb008000780080fd2800d8
:102ee400f2050700204798002e4090000080fb0068
:102ef40080007800f0132100c5280700d7053700ab
:102f04000040eb0030479800030037003e4090003b
:102f14000040e800304798003e4090000080fb00ed
:102f2400a104200080804000a01321000080400004
:102f34009040900040c2b30080cf5000f3ff3a00ad
:102f44003e41900071062100824878000040eb0069
:102f540030479800030037003e4090000040e800ee
:102f64003047980067d0bf00be40900080cf50002b
:102f74000a0031003e4090000080fb00a1042000c4
:102f840080804000a0132100008040009040900009
:102f9400c0c2b30080cf5000efff3a00be409000a3
:102fa400014f980067d0bf008e48900080cf50003a
:102fb400750532000e49900032479800030037002f
:102fc4003e4090000040e8003047980067d0bf00c2
:102fd400be40900080cf50000a0031003e40900077
:102fe4000080fb00a104200080804000a013210089
:102ff4000080400090409000c0c2b30080cf5000d9
:10300400efff3a00be4090007147980067d0bf00c0
:10301400fe40900080cf50005d0532007e4190005c
:1030240032479800030037003e4090000040e8001b
:103034003047980067d0bf00be40900080cf50005a
:103044000a0031003e4090000080fb00a1042000f3
:1030540080804000a0132100008040009040900038
:1030640070c5b30080cf5000efff3a00be4090001f
:103074006147980067d0bf00ee40900080cf5000b9
:10308400450532000e4890000080fb000000e90076
:10309400a104200080804000a01321000080400093
:1030a4009040900000cdb30000c04000204f980035
:1030b400511821006e4090000080fb000000e800e1
:1030c4000080400038fb0700104f9800ee4090004d
:1030d40050182100340607009e489000814f50008c
:1030e40018003a002e4890000004e000030032006b
:1030f40010c0b300004f7800020037000040eb001e
:10310400004f78007e4090000080fb000000e80043
:10311400a104200080804000a01321000080400012
:103124009040900000cdb30000c04000204f9800b4
:10313400ae4890001e407800242307006c06070068
:103144004605370085060700440537000040eb00bc
:1031540030479800030037003e4090000040e800ec
:10316400304798003e4090000080fb00a1042000fe
:1031740080804000a0132100008040009040900017
:1031840040c2b30080cf5000f3ff3a00be4090002d
:1031940072062100014978000040eb003047980096
:1031a400030037003e4090000040e800304798009c
:1031b40067d0bf00be40900080cf50000a003100ad
:1031c4003e4090000080fb00a1042000808040006d
:1031d400a01321000080400090409000c0c2b300c2
:1031e40080cf5000efff3a003e419000024f98001c
:1031f40067d0bf008e48900080cf5000e8043200b2
:103204008e48900031479800030037003e409000fc
:103214000040e8003047980067d0bf00be409000ef
:1032240080cf50000a0031003e4090000080fb0037
:10323400a104200080804000a013210000804000f1
:1032440090409000c0c2b30080cf5000efff3a001e
:103254003e4190007247980067d0bf00fe40900046
:1032640080cf5000d0043200fe40900031479800d7
:10327400030037003e4090000040e80030479800cb
:1032840067d0bf00be40900080cf50000a003100dc
:103294003e4090000080fb00a1042000808040009c
:1032a400a0132100008040009040900070c5b3003e
:1032b40080cf5000efff3a003e41900062479800f3
:1032c40067d0bf00ee40900080cf5000b8043200b9
:1032d4000e4890000080fb000000e900a1042000db
:1032e40080804000a01321000080400090409000a6
:1032f40000cdb30000c04000204f980051182100b9
:103304006e4090000080fb000000e8000080400058
:10331400a5fa0700104f9800ee40900050182100c5
:10332400a10507009e489000814f50001d003a00ff
:103334002e4890000004e0000300320010c0b300e7
:10334400004f7800020037000040eb00004f780087
:10335400511821007e4090000080fb000000e8002e
:103364000080400090fa0700600798006e0090000b
:103374008000eb0079f6070002002000832c240073
:1033840090f7070070079800010f98007e019000e5
:103394008e0990001e4078004b1b0700d4050700df
:1033a400ae043700ed050700ac0437000040eb0025
:1033b40030479800030037003e4090000040e8008a
:1033c400304798003e4090000080fb00a10420009c
:1033d40080804000a01321000080400090409000b5
:1033e40040c2b30080cf5000f3ff3a003e4190004a
:1033f40071062100824878000040eb0030479800b5
:10340400030037003e4090000040e8003047980039
:1034140067d0bf00be40900080cf50000a0031004a
:103424003e4090000080fb00a1042000808040000a
:10343400a01321000080400090409000c0c2b3005f
:1034440080cf5000efff3a00be409000014f98003b
:1034540067d0bf008e48900080cf500056043200e1
:103464000e49900032479800030037003e40900018
:103474000040e8003047980067d0bf00be4090008d
:1034840080cf50000a0031003e4090000080fb00d5
:10349400a104200080804000a0132100008040008f
:1034a40090409000c0c2b30080cf5000efff3a00bc
:1034b400be4090007147980067d0bf00fe40900066
:1034c40080cf50003e0432007e4190003247980085
:1034d400030037003e4090000040e8003047980069
:1034e40067d0bf00be40900080cf50000a0031007a
:1034f4003e4090000080fb00a1042000808040003a
:10350400a0132100008040009040900070c5b300db
:1035140080cf5000efff3a00be4090006147980012
:1035240067d0bf00ee40900080cf500026043200e8
:103534000e4890000080fb000000e900a104200078
:1035440080804000a0132100008040009040900043
:1035540000cdb30000c04000204f98005118210056
:103564006e4090000080fb000000e80000804000f6
:103574000dfa0700104f9800ee40900050182100fb
:10358400090507009e489000814f500014003a003e
:103594002e4890000004e0000300320010c0b30085
:1035a400004f7800020037000040eb00004f780025
:1035b400511821007e4090000080fb000000e800cc
:1035c40000804000f8f9070060079800ee009000c2
:1035d4001e407800151f0700450507001f0437002b
:1035e4005e0507001d0437000040eb0030479800db
:1035f400030037003e4090000040e8003047980048
:103604003e4090000080fb00a10420008080400028
:10361400a0132100008040009040900040c2b300fd
:1036240080cf5000f3ff3a00be40900072062100a4
:10363400014978000040eb00304798000300370050
:103644003e4090000040e8003047980067d0bf003b
:10365400be40900080cf50000a0031003e409000f0
:103664000080fb00a104200080804000a013210002
:103674000080400090409000c0c2b30080cf500052
:10368400efff3a003e419000024f980067d0bf0020
:103694008e48900080cf5000cd0332000e48900039
:1036a4000040e80030479800030037003e40900097
:1036b4000040e8003047980067d0bf00be4090004b
:1036c40080cf50000a0031003e4090000080fb0093
:1036d400a104200080804000a0132100008040004d
:1036e40090409000c0c2b30080cf5000efff3a007a
:1036f400be4090007147980067d0bf00fe40900024
:1037040080cf5000b40332007e41900032479800cd
:10371400030037003e4090000040e8003047980026
:1037240067d0bf00be40900080cf50000a00310037
:103734003e4090000080fb00a104200080804000f7
:10374400a01321000080400090409000c0c2b3004c
:1037540080cf5000efff3a00be40900061479800d0
:1037640067d0bf00ee40900080cf50009c03320031
:103774006e41900032479800030037003e409000ad
:103784000040e8003047980067d0bf00be4090007a
:1037940080cf50000a0031003e4090000080fb00c2
:1037a400a104200080804000a0132100008040007c
:1037b4009040900070c5b30080cf5000efff3a00f6
:1037c400be4090005147980067d0bf00de40900093
:1037d40080cf5000840332000e4890000080fb002c
:1037e4000000e900a104200080804000a013210013
:1037f400008040009040900000cdb30000c0400025
:10380400204f98002e4890000004e000030032008e
:1038140010c0b300004f7800020037000040eb00f6
:10382400004f78007e4090000080fb000000e9001b
:10383400a104200080804000a013210000804000eb
:103844009040900000cdb30000c04000204f98008d
:103854002e4890000004e0000300320010c0b300c2
:1038640010479800020037000040eb001047980012
:10387400511821005e4090000080fb000000e80029
:103884000080400048f90700104f9800de40900087
:1038940050182100440407009e489000814f5000b6
:1038a40010003a00511821006e4090000080fb0087
:1038b4000000e800008040006bf90700100f98003a
:1038c400210f98001e089000ae0890000001be0071
:1038d4009e4090001e40780099140700840407005d
:1038e4005e0337009d0407005c0337000040eb00d3
:1038f40030479800030037003e4090000040e80045
:10390400304798003e4090000080fb00a104200056
:1039140080804000a013210000804000904090006f
:1039240040c2b30080cf5000f3ff3a00be40900085
:1039340072062100014978000040eb0030479800ee
:10394400030037003e4090000040e80030479800f4
:1039540067d0bf00be40900080cf50000a00310005
:103964003e4090000080fb00a104200080804000c5
:10397400a01321000080400090409000c0c2b3001a
:1039840080cf5000efff3a003e419000024f980074
:1039940067d0bf008e48900080cf500014033200df
:1039a4008e48900031479800030037003e40900055
:1039b4000040e8003047980067d0bf00be40900048
:1039c40080cf50000a0031003e4090000080fb0090
:1039d400a104200080804000a0132100008040004a
:1039e40090409000c0c2b30080cf5000efff3a0077
:1039f4003e4190007247980067d0bf00fe4090009f
:103a040080cf5000fc023200fe4090003147980005
:103a1400030037003e4090000040e8003047980023
:103a240067d0bf00be40900080cf50000a00310034
:103a34003e4090000080fb00a104200080804000f4
:103a4400a0132100008040009040900070c5b30096
:103a540080cf5000efff3a003e419000624798004b
:103a640067d0bf00ee40900080cf5000e4023200e7
:103a74000e4890000080fb000000e900a104200033
:103a840080804000a01321000080400090409000fe
:103a940000cdb30000c04000204f98005118210011
:103aa4006e4090000080fb000000e80000804000b1
:103ab400bdf80700104f9800ee4090005018210008
:103ac400b90307009e489000814f500016003a0049
:103ad4002e4890000004e0000300320010c0b30040
:103ae400004f7800020037000040eb00004f7800e0
:103af400511821007e4090000080fb000000e80087
:103b040000804000a8f80700600798006e0090004d
:103b140000407800804078001e407800db220700d7
:103b2400f3030700cd0237000c040700cb02370073
:103b34000040eb0030479800030037003e409000ff
:103b44000040e800304798003e4090000080fb00b1
:103b5400a104200080804000a013210000804000c8
:103b64009040900040c2b30080cf5000f3ff3a0071
:103b74003e41900071062100824878000040eb002d
:103b840030479800030037003e4090000040e800b2
:103b94003047980067d0bf00be40900080cf5000ef
:103ba4000a0031003e4090000080fb00a104200088
:103bb40080804000a01321000080400090409000cd
:103bc400c0c2b30080cf5000efff3a00be40900067
:103bd400014f980067d0bf008e48900080cf5000fe
:103be400890232000e4990003247980003003700e2
:103bf4003e4090000040e8003047980067d0bf0086
:103c0400be40900080cf50000a0031003e4090003a
:103c14000080fb00a104200080804000a01321004c
:103c2400008040009040900070c5b30080cf5000e9
:103c3400efff3a00be4090007147980067d0bf0084
:103c4400fe40900080cf5000710232000e48900078
:103c54000080fb000000e900a104200080804000f7
:103c6400a0132100008040009040900000cdb300dc
:103c740000c04000204f9800511821007e40900061
:103c84000080fb000000e8000080400046f80700c8
:103c9400104f9800fe409000501821004203070086
:103ca4009e489000814f50000c003a002e4890002e
:103cb4000004e0000300320010c0b300004f78009d
:103cc400020037000040eb00004f78001e407800ef
:103cd4005522070086030700600237009f03070090
:103ce4005e0237000040eb003047980003003700c5
:103cf4003e4090000040e800304798003e4090006d
:103d04000080fb00a104200080804000a01321005b
:103d1400008040009040900040c2b30080cf50002b
:103d2400f3ff3a00be40900072062100014978007a
:103d34000040eb0030479800030037003e409000fd
:103d44000040e8003047980067d0bf00be409000b4
:103d540080cf50000a0031003e4090000080fb00fc
:103d6400a104200080804000a013210000804000b6
:103d740090409000c0c2b30080cf5000efff3a00e3
:103d84003e419000024f980067d0bf008e489000db
:103d940080cf5000200232008e48900031479800b6
:103da400030037003e4090000040e8003047980090
:103db40067d0bf00be40900080cf50000a003100a1
:103dc4003e4090000080fb00a10420008080400061
:103dd400a0132100008040009040900070c5b30003
:103de40080cf5000efff3a003e41900072479800a8
:103df40067d0bf00fe40900080cf50000802320020
:103e04000e4890000080fb000000e900a10420009f
:103e140080804000a013210000804000904090006a
:103e240000cdb30000c04000204f9800511821007d
:103e34007e4090000080fb000000e800008040000d
:103e4400d9f70700104f9800fe4090005018210049
:103e5400d50207009e489000814f50000c003a00a4
:103e64002e4890000004e0000300320010c0b300ac
:103e7400004f7800020037000040eb00004f78004c
:103e84001e407800d321070019030700f30137000f
:103e940032030700f10137000040eb00304798007f
:103ea400030037003e4090000040e800304798008f
:103eb4003e4090000080fb00a10420008080400070
:103ec400a0132100008040009040900040c2b30045
:103ed40080cf5000f3ff3a003e419000710621006c
:103ee400824878000040eb00304798000300370018
:103ef4003e4090000040e8003047980067d0bf0083
:103f0400be40900080cf50000a0031003e40900037
:103f14000080fb00a104200080804000a013210049
:103f24000080400090409000c0c2b30080cf500099
:103f3400efff3a00be409000014f980067d0bf00e9
:103f44008e48900080cf5000b70132000e49900097
:103f540032479800030037003e4090000040e800dc
:103f64003047980067d0bf00be40900080cf50001b
:103f74000a0031003e4090000080fb00a1042000b4
:103f840080804000a01321000080400090409000f9
:103f9400c0c2b30080cf5000efff3a00be40900093
:103fa4007147980067d0bf00fe40900080cf50005a
:103fb4009f0132007e419000324798000300370091
:103fc4003e4090000040e8003047980067d0bf00b2
:103fd400be40900080cf50000a0031003e40900067
:103fe4000080fb00a104200080804000a013210079
:103ff400008040009040900070c5b30080cf500016
:10400400efff3a00be4090006147980067d0bf00c0
:10401400ee40900080cf5000870132000e4890009f
:104024000080fb000000e900a10420008080400023
:10403400a0132100008040009040900000cdb30008
:1040440000c04000204f9800511821006e4090009d
:104054000080fb000000e8000080400052f70700e9
:10406400104f9800ee409000501821004e020700b7
:104074009e489000814f500024003a0051182100be
:104084007e4090000080fb000000e80000804000bb
:1040940045f70700600798002e4890000004e000f0
:1040a400110032006e0090000000e0000b003a00a6
:1040b4000040eb00004f780010c0b30078f0b70068
:1040c40010c0b30077f0b70010c0b30076f0b700ab
:1040d40060002000208388000500370010c0b30072
:1040e400004f7800020037000040eb00004f7800da
:1040f4001e407800162a0700ee0090001e4078004b
:10410400ca2907007a020700540137009302070006
:10411400520137000040eb0030479800030037009d
:104124003e4090000040e800304798003e40900038
:104134000080fb00a104200080804000a013210027
:10414400008040009040900040c2b30080cf5000f7
:10415400f3ff3a00be409000720621000149780046
:104164000040eb0030479800030037003e409000c9
:104174000040e8003047980067d0bf00be40900080
:1041840080cf50000a0031003e4090000080fb00c8
:10419400a104200080804000a01321000080400082
:1041a40090409000c0c2b30080cf5000efff3a00af
:1041b4003e419000024f980067d0bf008e489000a7
:1041c40080cf50001e0132000e4890000040e800ed
:1041d40030479800030037003e4090000040e8005c
:1041e4003047980067d0bf00be40900080cf500099
:1041f4000a0031003e4090000080fb00a104200032
:1042040080804000a0132100008040009040900076
:10421400c0c2b30080cf5000efff3a00be40900010
:104224007147980067d0bf00fe40900080cf5000d7
:10423400050132007e4190003247980003003700a8
:104244003e4090000040e8003047980067d0bf002f
:10425400be40900080cf50000a0031003e409000e4
:104264000080fb00a104200080804000a0132100f6
:104274000080400090409000c0c2b30080cf500046
:10428400efff3a00be4090006147980067d0bf003e
:10429400ee40900080cf5000ed0032006e4190005f
:1042a40032479800030037003e4090000040e80089
:1042b4003047980067d0bf00be40900080cf5000c8
:1042c4000a0031003e4090000080fb00a104200061
:1042d40080804000a01321000080400090409000a6
:1042e40070c5b30080cf5000efff3a00be4090008d
:1042f4005147980067d0bf00de40900080cf500047
:10430400d5003200511821005e4090000080fb006f
:104314000000e80000804000a3f60700104f98005a
:10432400de409000501821009f0107009e48900035
:10433400814f50004d003a000e4890000080fb0071
:104344000000e900a104200080804000a0132100a7
:10435400008040009040900000cdb30000c04000b9
:10436400204f98002e4890000004e0000500320021
:1043740010c0b30078f0b70010c0b30077f0b700f6
:104384000400370010c0b30078f0b70010c0b300c9
:1043940077f0b7007e4090000080fb000000e90049
:1043a400a104200080804000a01321000080400070
:1043b4009040900000cdb30000c04000204f980012
:1043c4002e4890000004e0000300320010c0b30047
:1043d400004f7800020037000040eb00004f7800e7
:1043e4001e4078005a29070074d0bf000004a200c0
:1043f4000004e0000200320010c0b30074f0b70003
:10440400511821006e4090000080fb000000e8007d
:104414000080400094f60700100f9800210f9800c8
:104424001e089000ae089000708388008183880085
:1044340079d0bf000004a2000004e00005003200af
:1044440010c0b30079f0b7007083800081838000ce
:10445400f311070010c0b30076f0b700600020002d
:1044640020838800a20107007c003700bb010700fd
:104474007a0037000040eb00304798000300370013
:104484003e4090000040e800304798003e409000d5
:104494000080fb00a104200080804000a0132100c4
:1044a400008040009040900040c2b30080cf500094
:1044b400f3ff3a00be4090007206210001497800e3
:1044c4000040eb0030479800030037003e40900066
:1044d4000040e8003047980067d0bf00be4090001d
:1044e40080cf50000a0031003e4090000080fb0065
:1044f400a104200080804000a0132100008040001f
:104504009040900040c2b30080cf5000efff3a00cb
:104514003e419000024f98000e4890000080fb003e
:104524000000e900a104200080804000a0132100c5
:10453400008040009040900000cdb30000c04000d7
:10454400204f98002e4890000004e0000300320041
:1045540010c0b300004f7800400037000040eb006b
:10456400004f78003d003700000000003b0037009a
:104574000000000039003700000000003700370059
:104584000000000035003700000000003300370051
:104594000000000031003700000000002f00370049
:1045a400000000002d003700000000002b00370041
:1045b4000000000029003700000000002700370039
:1045c4000000000025003700000000002300370031
:1045d4000000000021003700000000001f00370029
:1045e400000000001d003700000000001b00370021
:1045f4000000000019003700000000001700370019
:104604000000000015003700000000001300370010
:104614000000000011003700000000000f00370008
:10462400000000000d003700000000000b00370000
:1046340000000000090037000000000007003700f8
:1046440000000000050037000000000003003700f0
:104654000000000001003700000000000000eb0033
:10466400e0898800050037000000000003003700df
:1046740000000000010037000000000076d0bf00f9
:104684000004e000010032004f0107000080fa003e
:10469400000006000200fa00004f78001e40780077
:1046a4003d2207000080fa00000006000600fa0020
:1046b40010079800210798000000eb00000f780015
:1046c4000d0037001e0078009e009000008040001e
:1046d40010407800804078002e019000e013210003
:1046e40000004100114098002e0090000000e800f6
:1046f400200798001e0fe8001e0078009e0090001e
:1047040000804000104078000004e000edff3a0013
:10471400ae009000e0132100008040008040eb00d8
:10472400114098002e0090000080fa00000006005e
:104734001400fa00881f780070079800010f980091
:10474400225798000040eb00004f78000040eb0037
:10475400204798000040eb00104798007e0090002e
:104764008e089000e00f5000e08f58001f003a00c0
:104774001e4090000080fb006300400001c3b300b2
:10478400017778001e4090000040e8001047980030
:10479400160037001e4090000084fb007e0090004d
:1047a4008e089000a20020000300200094f107006e
:1047b4000040780002c3b30082404000630044001c
:1047c400017778001e4090000040e80010479800f0
:1047d4007e0090008e089000a200200003002000bc
:1047e40077f1070070079800010f98007e00900091
:1047f4008e089000e00f5000e08f5800e5ff3a006b
:10480400080037001e4090000080fb006300400059
:1048140001c3b300017778001e4090000040e80017
:10482400104798009e4090002e50900080cf50007a
:10483400f4ff39009e409000214798002e409000dc
:104844000040e900104798000040eb00004f78005a
:104854000c0037001e81fb001e4090000080fb000e
:1048640063004000ee407800e013210000004100a6
:10487400114098001e4090000040e9001047980045
:104884001e4fe8002e4090009e40780080cf5000dc
:10489400f0ff39002e4090004f0478000080fa00a9
:1048a400000006000e00fa00400798005107980027
:1048b400424f98000040eb00004f78004e009000fb
:1048c400de00900007f10700100798002107980008
:1048d4001e009000ae00900020f107000001be0011
:1048e4004e009000de00900048f107004007980059
:1048f4005107980012c0b3001e009000ae00900053
:104904008bff0700104798000040eb00004f780031
:104914001e00370002002000031224004e00900005
:10492400de00900006f30700400798005107980046
:104934004e009000de009000eaf00700004078008e
:104944000081fb00d0cc2c000010b8004308de002e
:10495400ea00b90000005100604798001e40900032
:104964000081fb006e40900003c3b300834040000d
:10497400e013210000004100114098001e40900007
:104984000040e800104798001e4fe8004e48900091
:104994009e40780080cf5000deff39001e4090001a
:1049a4000080fa00000006000800fa0020079800c2
:1049b400614798000040eb00004f780070c0b300de
:1049c400304798000040eb00204798001f00370054
:1049d4002e009000104078001e4f68002e009000ba
:1049e4000000e800200798000040eb001047980002
:1049f400100037001e4078000004e00007003d006e
:104a04001e80fb0000004000804078003e40900083
:104a140000c06800004f7800030037001e40780093
:104a240000404000004f78001e4090000040e80025
:104a3400104798001e409000e74f5000edff3600ed
:104a44002e4090000040e80020479800ae409000bf
:104a54006e40900080cf5000ddff39001e4078008a
:104a64000080fa00000006000600fa001007980013
:104a740041479800524798000040eb00004f7800ef
:104a84000040eb00104798000040eb0010479800ee
:104a9400100037004e4090000080fb009e80fb0019
:104aa4001e0190008100410091407800225b2100aa
:104ab40000004100014878004e4090000040e800aa
:104ac400404798001e4fe8001e4090000040e80058
:104ad400104798009e4090005e40900080cf5000a8
:104ae400ecff39004e4090000080fa000000060000
:104af4000400fa000000eb00000f78000000eb0057
:104b04001007980030c2b300e2fe0700a0c5b3004e
:104b1400e0fe070060002000000f78001e0078000f
:104b24008000eb0022c0b30001ff07000080fb00ff
:104b3400100798001e0090008000780080fd280077
:104b4400dafe0700100798009e009000f013210081
:104b5400af2107000080fa00000006000400fa00fc
:104b64000000eb00000f78000000eb001007980035
:104b740030c2b300c7fe0700a0c5b300c5fe0700de
:104b840050012000000f78001e0078008000eb0028
:104b940022c0b300e6fe07000080fb001007980067
:104ba4001e0090008000780080fd2800bffe0700f2
:104bb400100798009e009000f01321009421070034
:104bc4000080fa00000006000400fa002083800040
:104bd400e30f500049003200e30f500005003e008f
:104be400e10f500020003200e10f50003d003e0074
:104bf40014003700e50f50004c003200e50f500060
:104c040044003900e60f500003003200e70f500063
:104c1400070032004e0037008000eb000040eb003c
:104c24008219070070002000208388005600370096
:104c34009f1907000000e0004a003a006430ef00ca
:104c44005100370070838000818380000001be0022
:104c54008040eb000040eb00b90f0700100020007b
:104c64002083880048003700e8240700008fbe0036
:104c74007083800081838000e00f5000e08f580033
:104c84001500320072838000838380008038210005
:104c9400010020000200400083804800be0f500045
:104ca400ae8f580031003900728380008383800006
:104cb40080c72e00f1ff2f000200400083804800cf
:104cc400be0f5000ae8f58002a003e002000200086
:104cd400208388002c0037002000200020838800d7
:104ce4002900370077d0bf0021c0b300371c07006c
:104cf400300020002083880023003700931c070025
:104d0400e24f50001d003a0040002000208388003c
:104d14001d00370078d0bf006011b800ea14070006
:104d24005000200020838800170037000815070072
:104d34006011b800e7ef07000000e00011003a003e
:104d440060002000208388007670ef000e0037009a
:104d54007670ef00600020002083880000000000cf
:104d640009003700000000000700370000000000c1
:104d740005003700000000000300370000000000b9
:104d840001003700000000000080fa000000060067
:104d94000400fa000040eb00004f78000000eb0034
:104da40010079800bb70ef00bc70ef00be30ef003e
:104db400ba70ef00c070ef00c170ef00c270ef0076
:104dc400c370ef001e80fb008000780060f92800ab
:104dd4005a090700004f78001e80fb00800078000d
:104de400d0272100ac2207007f2b07001007980072
:104df400032c07000040eb00004f78001e80fb00ee
:104e040080007800c0fa28004c090700004f7800a1
:104e14001e80fb0080007800d02721009e2207001e
:104e24001e0090008000eb0052c0b300640907002c
:104e3400004f78001e80fb0080007800a0fb280053
:104e44003e090700004f78001e80fb0080007800b8
:104e5400d0272100902207000080fa0000000600fd
:104e64001600fa000040eb00004f78000040eb0011
:104e7400104798000040eb00204798000040eb00ea
:104e8400504798000040eb00604798000040eb005a
:104e9400704798000040eb00004f98000040eb0082
:104ea400104f98000040eb00204f98000040eb00aa
:104eb400304798000040eb00404798000000eb00aa
:104ec400600798006000b800100f9800210f980048
:104ed4006000b80070079800010f9800d09380001c
:104ee400e10f50002a023200e10f500003003900a4
:104ef400e20f50007a02320008093700f10f200057
:104f0400d037210047220700204798002e40900008
:104f14000004e0000d003200d037210090407800fa
:104f240030c2b30080cf500008003a0010002000c7
:104f3400d0938800c0272100ae409000014878003b
:104f4400c027210010407800bcf0b700f085800035
:104f54000000e800f0858800f1858000800c2000c6
:104f6400808f5000ea083600be30ef00c1d0bf0089
:104f74000004e00003003a00c2d0bf000004e000d7
:104f840048013200c170ef00c270ef0030c2b300bc
:104f9400e40807004e4090000080fb00215f2100e0
:104fa4000080400031c2b300014878004e409000b8
:104fb4000040e80040479800c2d0bf000004e00071
:104fc4001700320090c5b300d608070030c4b30000
:104fd400d40807007d290700600798006e00900040
:104fe4008000eb0042c0b300f5080700204798009a
:104ff4002e4090000080fb0080007800f0fb280029
:10500400ce080700204798002e4090000080fb0047
:1050140080007800d02721001f2207000b003700f2
:1050240090c5b300bf0807004e4090000080fb000d
:10503400215f21000080400091c5b3000148780041
:105044004e4090000040e8004047980010c4b30070
:10505400b40807004e4090000080fb00215f21004f
:105064000080400011c4b300014878004e40900015
:105074000040e80040479800e4230700100f980020
:10508400210f98001e089000ae08900062c0b30083
:10509400cb080700204798002e4090000080fb00ba
:1050a40080007800f0fb2800a4080700204798003f
:1050b400d02721002e419000ce4090008e09070099
:1050c400404798002e4090000080fb00800078004c
:1050d400d0272100f021070020c4b3009108070065
:1050e4004e4090000080fb00215f210000804000c2
:1050f40021c4b300014878004e4090000040e8000d
:1051040040479800c6230700100f9800210f98000d
:105114001e089000ae08900062c0b300a808070003
:10512400204798002e4090000080fb00800078000b
:10513400f0fb28008108070020479800d0272100b1
:105144002e419000ce4090006b0907004047980024
:105154002e4090000080fb0080007800d0272100c2
:10516400cd21070060c4b3006e0807004e409000d4
:105174000080fb00215f21000080400061c4b30077
:10518400014878004e4090000040e80040479800f5
:10519400ef13070070079800010f980022c0b300b6
:1051a4007e0090008e089000e208070020479800d7
:1051b4002e4090000080fb0080007800f0fb280067
:1051c4005e08070020479800d02721002e41900058
:1051d400ce40900048090700404798002e409000b8
:1051e4000080fb0080007800d0272100aa2107005e
:1051f40040c4b3004b0807004e4090000080fb0001
:10520400215f21000080400041c4b30001487800c0
:105214004e4090000040e800404798004b1b0700b8
:10522400204f98002e4890000080fb008000eb0087
:105234000041eb0062080700204798002e409000d0
:105244000080fb0080007800f0fb28003b0807008a
:1052540020479800d02721002e419000ce40900096
:1052640025090700404798002e4090000080fb006d
:1052740080007800d02721008721070080c4b30074
:10528400280807004e4090000080fb00215f2100a9
:105294000080400081c4b300014878004e40900073
:1052a4000040e80040479800011807008000eb0028
:1052b400100f9800210f98001e089000ae0890006f
:1052c40032c0b3003e080700204798002e409000eb
:1052d4000080fb0080007800f0fb2800170807001e
:1052e40020479800d02721002e419000ce40900006
:1052f40001090700404798002e4090000080fb0001
:1053040080007800d02721006321070050c4b30037
:10531400040807004e4090000080fb00215f21003c
:105324000080400051c4b300014878004e40900012
:105334000040e80040479800602507008000eb002b
:10534400100f9800210f98001e089000ae089000de
:1053540042c0b3001a080700204798002e4090006e
:105364000080fb0080007800f0fb2800f3070700b2
:1053740020479800d02721002e419000ce40900075
:10538400dd080700404798002e4090000080fb0095
:1053940080007800d02721003f210700c3d0bf0040
:1053a4000004e00026003200c370ef00a0c5b30083
:1053b400dc0707004e4090000080fb00215f2100c5
:1053c40000804000a1c5b300014878004e40900021
:1053d4000040e80040479800c0d0bf000080fb00b8
:1053e4008000eb00100f9800210f98001e08900019
:1053f400ae08900022c0b300f107070020479800d0
:105404002e4090000080fb0080007800f0fb280014
:10541400ca07070020479800d02721002e4190009a
:10542400ce409000b4080700404798002e409000fa
:105434000080fb0080007800d0272100162107009f
:1054440070c5b300b7070700ce409000205f21006d
